{
  "_format": "hh-sol-artifact-1",
  "contractName": "GoodpromptRegistry",
  "sourceName": "contracts/GoodpromptRegistry.sol",
  "abi": [
    {
      "inputs": [
        {
          "internalType": "uint256",
          "name": "",
          "type": "uint256"
        }
      ],
      "name": "datasetEntries",
      "outputs": [
        {
          "internalType": "string",
          "name": "ipfsHash",
          "type": "string"
        },
        {
          "internalType": "address",
          "name": "sponsor",
          "type": "address"
        }
      ],
      "stateMutability": "view",
      "type": "function"
    },
    {
      "inputs": [
        {
          "internalType": "uint256",
          "name": "",
          "type": "uint256"
        }
      ],
      "name": "datasetReviews",
      "outputs": [
        {
          "internalType": "string",
          "name": "ipfsHash",
          "type": "string"
        },
        {
          "internalType": "uint256",
          "name": "datasetIndex",
          "type": "uint256"
        },
        {
          "internalType": "address",
          "name": "reviewer",
          "type": "address"
        }
      ],
      "stateMutability": "view",
      "type": "function"
    },
    {
      "inputs": [],
      "name": "getDatasetCount",
      "outputs": [
        {
          "internalType": "uint256",
          "name": "",
          "type": "uint256"
        }
      ],
      "stateMutability": "view",
      "type": "function"
    },
    {
      "inputs": [
        {
          "internalType": "uint256",
          "name": "index",
          "type": "uint256"
        }
      ],
      "name": "retrieveDatasetAndSponsor",
      "outputs": [
        {
          "internalType": "string",
          "name": "",
          "type": "string"
        },
        {
          "internalType": "address",
          "name": "",
          "type": "address"
        }
      ],
      "stateMutability": "view",
      "type": "function"
    },
    {
      "inputs": [
        {
          "internalType": "string",
          "name": "_ipfsHash",
          "type": "string"
        }
      ],
      "name": "submitDataset",
      "outputs": [],
      "stateMutability": "nonpayable",
      "type": "function"
    },
    {
      "inputs": [
        {
          "internalType": "uint256",
          "name": "index",
          "type": "uint256"
        },
        {
          "internalType": "string",
          "name": "_ipfsHash",
          "type": "string"
        }
      ],
      "name": "submitDatasetReview",
      "outputs": [],
      "stateMutability": "nonpayable",
      "type": "function"
    }
  ],
  "bytecode": "0x608060405234801561001057600080fd5b50610e1b806100206000396000f3fe608060405234801561001057600080fd5b50600436106100625760003560e01c806303dbddf1146100675780632f5201bd146100995780634f51a5f8146100b7578063dfef82d6146100e8578063efcf6a8514610104578063f2abeea814610120575b600080fd5b610081600480360381019061007c9190610703565b610151565b60405161009093929190610810565b60405180910390f35b6100a1610233565b6040516100ae919061084e565b60405180910390f35b6100d160048036038101906100cc9190610703565b61023f565b6040516100df929190610869565b60405180910390f35b61010260048036038101906100fd91906108fe565b61031b565b005b61011e6004803603810190610119919061095e565b610476565b005b61013a60048036038101906101359190610703565b610579565b604051610148929190610869565b60405180910390f35b6001818154811061016157600080fd5b9060005260206000209060030201600091509050806000018054610184906109da565b80601f01602080910402602001604051908101604052809291908181526020018280546101b0906109da565b80156101fd5780601f106101d2576101008083540402835291602001916101fd565b820191906000526020600020905b8154815290600101906020018083116101e057829003601f168201915b5050505050908060010154908060020160009054906101000a900473ffffffffffffffffffffffffffffffffffffffff16905083565b60008080549050905090565b6000818154811061024f57600080fd5b9060005260206000209060020201600091509050806000018054610272906109da565b80601f016020809104026020016040519081016040528092919081815260200182805461029e906109da565b80156102eb5780601f106102c0576101008083540402835291602001916102eb565b820191906000526020600020905b8154815290600101906020018083116102ce57829003601f168201915b5050505050908060010160009054906101000a900473ffffffffffffffffffffffffffffffffffffffff16905082565b6000805490508310610362576040517f08c379a000000000000000000000000000000000000000000000000000000000815260040161035990610a7d565b60405180910390fd5b6000604051806060016040528084848080601f016020809104026020016040519081016040528093929190818152602001838380828437600081840152601f19601f8201169050808301925050505050505081526020018581526020013373ffffffffffffffffffffffffffffffffffffffff1681525090506001819080600181540180825580915050600190039060005260206000209060030201600090919091909150600082015181600001908161041c9190610c78565b506020820151816001015560408201518160020160006101000a81548173ffffffffffffffffffffffffffffffffffffffff021916908373ffffffffffffffffffffffffffffffffffffffff160217905550505050505050565b6000604051806040016040528084848080601f016020809104026020016040519081016040528093929190818152602001838380828437600081840152601f19601f8201169050808301925050505050505081526020013373ffffffffffffffffffffffffffffffffffffffff1681525090506000819080600181540180825580915050600190039060005260206000209060020201600090919091909150600082015181600001908161052a9190610c78565b5060208201518160010160006101000a81548173ffffffffffffffffffffffffffffffffffffffff021916908373ffffffffffffffffffffffffffffffffffffffff1602179055505050505050565b60606000808054905083106105c3576040517f08c379a00000000000000000000000000000000000000000000000000000000081526004016105ba90610d96565b60405180910390fd5b600083815481106105d7576105d6610db6565b5b9060005260206000209060020201600001600084815481106105fc576105fb610db6565b5b906000526020600020906002020160010160009054906101000a900473ffffffffffffffffffffffffffffffffffffffff1681805461063a906109da565b80601f0160208091040260200160405190810160405280929190818152602001828054610666906109da565b80156106b35780601f10610688576101008083540402835291602001916106b3565b820191906000526020600020905b81548152906001019060200180831161069657829003601f168201915b5050505050915091509150915091565b600080fd5b600080fd5b6000819050919050565b6106e0816106cd565b81146106eb57600080fd5b50565b6000813590506106fd816106d7565b92915050565b600060208284031215610719576107186106c3565b5b6000610727848285016106ee565b91505092915050565b600081519050919050565b600082825260208201905092915050565b60005b8381101561076a57808201518184015260208101905061074f565b60008484015250505050565b6000601f19601f8301169050919050565b600061079282610730565b61079c818561073b565b93506107ac81856020860161074c565b6107b581610776565b840191505092915050565b6107c9816106cd565b82525050565b600073ffffffffffffffffffffffffffffffffffffffff82169050919050565b60006107fa826107cf565b9050919050565b61080a816107ef565b82525050565b6000606082019050818103600083015261082a8186610787565b905061083960208301856107c0565b6108466040830184610801565b949350505050565b600060208201905061086360008301846107c0565b92915050565b600060408201905081810360008301526108838185610787565b90506108926020830184610801565b9392505050565b600080fd5b600080fd5b600080fd5b60008083601f8401126108be576108bd610899565b5b8235905067ffffffffffffffff8111156108db576108da61089e565b5b6020830191508360018202830111156108f7576108f66108a3565b5b9250929050565b600080600060408486031215610917576109166106c3565b5b6000610925868287016106ee565b935050602084013567ffffffffffffffff811115610946576109456106c8565b5b610952868287016108a8565b92509250509250925092565b60008060208385031215610975576109746106c3565b5b600083013567ffffffffffffffff811115610993576109926106c8565b5b61099f858286016108a8565b92509250509250929050565b7f4e487b7100000000000000000000000000000000000000000000000000000000600052602260045260246000fd5b600060028204905060018216806109f257607f821691505b602082108103610a0557610a046109ab565b5b50919050565b7f6461746173657420656e74727920496e646578206f7574206f6620626f756e6460008201527f7300000000000000000000000000000000000000000000000000000000000000602082015250565b6000610a6760218361073b565b9150610a7282610a0b565b604082019050919050565b60006020820190508181036000830152610a9681610a5a565b9050919050565b7f4e487b7100000000000000000000000000000000000000000000000000000000600052604160045260246000fd5b60008190508160005260206000209050919050565b60006020601f8301049050919050565b600082821b905092915050565b600060088302610b2e7fffffffffffffffffffffffffffffffffffffffffffffffffffffffffffffffff82610af1565b610b388683610af1565b95508019841693508086168417925050509392505050565b6000819050919050565b6000610b75610b70610b6b846106cd565b610b50565b6106cd565b9050919050565b6000819050919050565b610b8f83610b5a565b610ba3610b9b82610b7c565b848454610afe565b825550505050565b600090565b610bb8610bab565b610bc3818484610b86565b505050565b5b81811015610be757610bdc600082610bb0565b600181019050610bc9565b5050565b601f821115610c2c57610bfd81610acc565b610c0684610ae1565b81016020851015610c15578190505b610c29610c2185610ae1565b830182610bc8565b50505b505050565b600082821c905092915050565b6000610c4f60001984600802610c31565b1980831691505092915050565b6000610c688383610c3e565b9150826002028217905092915050565b610c8182610730565b67ffffffffffffffff811115610c9a57610c99610a9d565b5b610ca482546109da565b610caf828285610beb565b600060209050601f831160018114610ce25760008415610cd0578287015190505b610cda8582610c5c565b865550610d42565b601f198416610cf086610acc565b60005b82811015610d1857848901518255600182019150602085019450602081019050610cf3565b86831015610d355784890151610d31601f891682610c3e565b8355505b6001600288020188555050505b505050505050565b7f496e646578206f7574206f6620626f756e647300000000000000000000000000600082015250565b6000610d8060138361073b565b9150610d8b82610d4a565b602082019050919050565b60006020820190508181036000830152610daf81610d73565b9050919050565b7f4e487b7100000000000000000000000000000000000000000000000000000000600052603260045260246000fdfea2646970667358221220dabd3bbf6cd6ea4f734aa59ce4732c544010c5f9a94acf92e584ae18eca145b164736f6c63430008130033",
  "linkReferences": {},
  "deployedLinkReferences": {}
}