{
  "_format": "hh-sol-artifact-1",
  "contractName": "GoodpromptRegistry",
  "sourceName": "contracts/GoodpromptRegistry.sol",
  "abi": [
    {
      "inputs": [],
      "name": "getHashCount",
      "outputs": [
        {
          "internalType": "uint256",
          "name": "",
          "type": "uint256"
        }
      ],
      "stateMutability": "view",
      "type": "function"
    },
    {
      "inputs": [
        {
          "internalType": "uint256",
          "name": "",
          "type": "uint256"
        }
      ],
      "name": "hashEntries",
      "outputs": [
        {
          "internalType": "string",
          "name": "ipfsHash",
          "type": "string"
        },
        {
          "internalType": "address",
          "name": "owner",
          "type": "address"
        }
      ],
      "stateMutability": "view",
      "type": "function"
    },
    {
      "inputs": [
        {
          "internalType": "uint256",
          "name": "index",
          "type": "uint256"
        }
      ],
      "name": "retrieveHashAndOwner",
      "outputs": [
        {
          "internalType": "string",
          "name": "",
          "type": "string"
        },
        {
          "internalType": "address",
          "name": "",
          "type": "address"
        }
      ],
      "stateMutability": "view",
      "type": "function"
    },
    {
      "inputs": [
        {
          "internalType": "string",
          "name": "_ipfsHash",
          "type": "string"
        }
      ],
      "name": "storeHash",
      "outputs": [],
      "stateMutability": "nonpayable",
      "type": "function"
    }
  ],
  "bytecode": "0x608060405234801561001057600080fd5b50610a4a806100206000396000f3fe608060405234801561001057600080fd5b506004361061004c5760003560e01c8063578aa4f71461005157806371dc61cb1461008257806383b3847a1461009e5780638a0d82b9146100bc575b600080fd5b61006b60048036038101906100669190610462565b6100ed565b604051610079929190610560565b60405180910390f35b61009c600480360381019061009791906105f5565b610237565b005b6100a661033a565b6040516100b39190610651565b60405180910390f35b6100d660048036038101906100d19190610462565b610346565b6040516100e4929190610560565b60405180910390f35b6060600080805490508310610137576040517f08c379a000000000000000000000000000000000000000000000000000000000815260040161012e906106b8565b60405180910390fd5b6000838154811061014b5761014a6106d8565b5b9060005260206000209060020201600001600084815481106101705761016f6106d8565b5b906000526020600020906002020160010160009054906101000a900473ffffffffffffffffffffffffffffffffffffffff168180546101ae90610736565b80601f01602080910402602001604051908101604052809291908181526020018280546101da90610736565b80156102275780601f106101fc57610100808354040283529160200191610227565b820191906000526020600020905b81548152906001019060200180831161020a57829003601f168201915b5050505050915091509150915091565b6000604051806040016040528084848080601f016020809104026020016040519081016040528093929190818152602001838380828437600081840152601f19601f8201169050808301925050505050505081526020013373ffffffffffffffffffffffffffffffffffffffff168152509050600081908060018154018082558091505060019003906000526020600020906002020160009091909190915060008201518160000190816102eb9190610942565b5060208201518160010160006101000a81548173ffffffffffffffffffffffffffffffffffffffff021916908373ffffffffffffffffffffffffffffffffffffffff1602179055505050505050565b60008080549050905090565b6000818154811061035657600080fd5b906000526020600020906002020160009150905080600001805461037990610736565b80601f01602080910402602001604051908101604052809291908181526020018280546103a590610736565b80156103f25780601f106103c7576101008083540402835291602001916103f2565b820191906000526020600020905b8154815290600101906020018083116103d557829003601f168201915b5050505050908060010160009054906101000a900473ffffffffffffffffffffffffffffffffffffffff16905082565b600080fd5b600080fd5b6000819050919050565b61043f8161042c565b811461044a57600080fd5b50565b60008135905061045c81610436565b92915050565b60006020828403121561047857610477610422565b5b60006104868482850161044d565b91505092915050565b600081519050919050565b600082825260208201905092915050565b60005b838110156104c95780820151818401526020810190506104ae565b60008484015250505050565b6000601f19601f8301169050919050565b60006104f18261048f565b6104fb818561049a565b935061050b8185602086016104ab565b610514816104d5565b840191505092915050565b600073ffffffffffffffffffffffffffffffffffffffff82169050919050565b600061054a8261051f565b9050919050565b61055a8161053f565b82525050565b6000604082019050818103600083015261057a81856104e6565b90506105896020830184610551565b9392505050565b600080fd5b600080fd5b600080fd5b60008083601f8401126105b5576105b4610590565b5b8235905067ffffffffffffffff8111156105d2576105d1610595565b5b6020830191508360018202830111156105ee576105ed61059a565b5b9250929050565b6000806020838503121561060c5761060b610422565b5b600083013567ffffffffffffffff81111561062a57610629610427565b5b6106368582860161059f565b92509250509250929050565b61064b8161042c565b82525050565b60006020820190506106666000830184610642565b92915050565b7f496e646578206f7574206f6620626f756e647300000000000000000000000000600082015250565b60006106a260138361049a565b91506106ad8261066c565b602082019050919050565b600060208201905081810360008301526106d181610695565b9050919050565b7f4e487b7100000000000000000000000000000000000000000000000000000000600052603260045260246000fd5b7f4e487b7100000000000000000000000000000000000000000000000000000000600052602260045260246000fd5b6000600282049050600182168061074e57607f821691505b60208210810361076157610760610707565b5b50919050565b7f4e487b7100000000000000000000000000000000000000000000000000000000600052604160045260246000fd5b60008190508160005260206000209050919050565b60006020601f8301049050919050565b600082821b905092915050565b6000600883026107f87fffffffffffffffffffffffffffffffffffffffffffffffffffffffffffffffff826107bb565b61080286836107bb565b95508019841693508086168417925050509392505050565b6000819050919050565b600061083f61083a6108358461042c565b61081a565b61042c565b9050919050565b6000819050919050565b61085983610824565b61086d61086582610846565b8484546107c8565b825550505050565b600090565b610882610875565b61088d818484610850565b505050565b5b818110156108b1576108a660008261087a565b600181019050610893565b5050565b601f8211156108f6576108c781610796565b6108d0846107ab565b810160208510156108df578190505b6108f36108eb856107ab565b830182610892565b50505b505050565b600082821c905092915050565b6000610919600019846008026108fb565b1980831691505092915050565b60006109328383610908565b9150826002028217905092915050565b61094b8261048f565b67ffffffffffffffff81111561096457610963610767565b5b61096e8254610736565b6109798282856108b5565b600060209050601f8311600181146109ac576000841561099a578287015190505b6109a48582610926565b865550610a0c565b601f1984166109ba86610796565b60005b828110156109e2578489015182556001820191506020850194506020810190506109bd565b868310156109ff57848901516109fb601f891682610908565b8355505b6001600288020188555050505b50505050505056fea264697066735822122037004f9ac6596512ed1d51704aede9311c8f058b4f5124b56e5e86f3bafc6d9d64736f6c63430008130033",
  "linkReferences": {},
  "deployedLinkReferences": {}
}